{
    "contractName": "DataTypes",
    "abi": [
        {
            "constant": true,
            "inputs": [],
            "name": "getStateVariables",
            "outputs": [
                {
                    "internalType": "uint256",
                    "name": "",
                    "type": "uint256"
                },
                {
                    "internalType": "int256",
                    "name": "",
                    "type": "int256"
                },
                {
                    "internalType": "uint8",
                    "name": "",
                    "type": "uint8"
                },
                {
                    "internalType": "bool",
                    "name": "",
                    "type": "bool"
                },
                {
                    "internalType": "address",
                    "name": "",
                    "type": "address"
                },
                {
                    "internalType": "string",
                    "name": "",
                    "type": "string"
                }
            ],
            "payable": false,
            "stateMutability": "view",
            "type": "function"
        }
    ],
    "bytecode": "600960005560431960015560028054610100601160ff199092169190911761ff0019161762010000600160b01b03191633620100000217905560c0604052600560808190526468656c6c6f60d81b60a090815261005f9160039190610072565b5034801561006c57600080fd5b5061010d565b828054600181600116156101000203166002900490600052602060002090601f016020900481019282601f106100b357805160ff19168380011785556100e0565b828001600101855582156100e0579182015b828111156100e05782518255916020019190600101906100c5565b506100ec9291506100f0565b5090565b61010a91905b808211156100ec57600081556001016100f6565b90565b6101f98061011c6000396000f3fe608060405234801561001057600080fd5b506004361061002b5760003560e01c8063dde89cf514610030575b600080fd5b6100386100ef565b604051808781526020018681526020018560ff1660ff16815260200184151515158152602001836001600160a01b03166001600160a01b0316815260200180602001828103825283818151815260200191508051906020019080838360005b838110156100af578181015183820152602001610097565b50505050905090810190601f1680156100dc5780820380516001836020036101000a031916815260200191505b5097505050505050505060405180910390f35b600080546001805460028054600380546040805160206101009884161589026000190190931695909504601f810183900483028601830190915280855288978897889788976060979396919560ff8086169694860416946201000090046001600160a01b03169383918301828280156101a95780601f1061017e576101008083540402835291602001916101a9565b820191906000526020600020905b81548152906001019060200180831161018c57829003601f168201915b5050505050905095509550955095509550955090919293949556fea265627a7a72315820d13862b682fd6fb8c5b535d92a6218fa32e4cbe9cfa24bbc7464f49996f1bef364736f6c63430005100032",
    "sourcePath": "/Users/jessehawke/Desktop/myProject-Eth/contracts/DataTypes.sol",
    "compiler": {
        "name": "solc",
        "version": "0.5.16+commit.9c3226ce"
    },
    "functionHashes": {
        "getStateVariables()": "dde89cf5"
    },
    "gasEstimates": {
        "creation": {
            "codeDepositCost": "101000",
            "executionCost": "infinite",
            "totalCost": "infinite"
        },
        "external": {
            "getStateVariables()": "infinite"
        }
    }
}