{
  "contractName": "DataTypes",
  "abi": [
    {
      "constant": true,
      "inputs": [],
      "name": "getStateVariables",
      "outputs": [
        {
          "internalType": "uint256",
          "name": "",
          "type": "uint256"
        },
        {
          "internalType": "int256",
          "name": "",
          "type": "int256"
        },
        {
          "internalType": "uint8",
          "name": "",
          "type": "uint8"
        },
        {
          "internalType": "bool",
          "name": "",
          "type": "bool"
        },
        {
          "internalType": "address",
          "name": "",
          "type": "address"
        },
        {
          "internalType": "string",
          "name": "",
          "type": "string"
        }
      ],
      "payable": false,
      "stateMutability": "view",
      "type": "function"
    }
  ],
  "bytecode": "0x608060405260096000557fffffffffffffffffffffffffffffffffffffffffffffffffffffffffffffffbc6001556011600260006101000a81548160ff021916908360ff1602179055506001600260016101000a81548160ff021916908315150217905550336002806101000a81548173ffffffffffffffffffffffffffffffffffffffff021916908373ffffffffffffffffffffffffffffffffffffffff1602179055506040518060400160405280600581526020017f68656c6c6f000000000000000000000000000000000000000000000000000000815250600390805190602001906100ef929190610102565b503480156100fc57600080fd5b506101a7565b828054600181600116156101000203166002900490600052602060002090601f016020900481019282601f1061014357805160ff1916838001178555610171565b82800160010185558215610171579182015b82811115610170578251825591602001919060010190610155565b5b50905061017e9190610182565b5090565b6101a491905b808211156101a0576000816000905550600101610188565b5090565b90565b610245806101b66000396000f3fe608060405234801561001057600080fd5b506004361061002b5760003560e01c8063dde89cf514610030575b600080fd5b61003861010c565b604051808781526020018681526020018560ff1660ff168152602001841515151581526020018373ffffffffffffffffffffffffffffffffffffffff1673ffffffffffffffffffffffffffffffffffffffff16815260200180602001828103825283818151815260200191508051906020019080838360005b838110156100cc5780820151818401526020810190506100b1565b50505050905090810190601f1680156100f95780820380516001836020036101000a031916815260200191505b5097505050505050505060405180910390f35b60008060008060006060600054600154600260009054906101000a900460ff16600260019054906101000a900460ff166002809054906101000a900473ffffffffffffffffffffffffffffffffffffffff166003808054600181600116156101000203166002900480601f0160208091040260200160405190810160405280929190818152602001828054600181600116156101000203166002900480156101f55780601f106101ca576101008083540402835291602001916101f5565b820191906000526020600020905b8154815290600101906020018083116101d857829003601f168201915b5050505050905095509550955095509550955090919293949556fea265627a7a72315820021f96c49cc5478c7dc1134fcfcb64ae4dac41897bc048b54f29b9c3067f2b3064736f6c63430005100032",
  "source": "pragma solidity ^0.5.16;\n// A simply smart contract to show different datat types in solidity\n\ncontract DataTypes {\n    uint x = 9;\n    int i = -68;\n    uint8 j = 17;\n    bool isEthereumCool = true;\n    address owner = msg.sender; //Ethereum address of the message sender\n    string sMsg = \"hello\";\n\n    function getStateVariables() public view returns (uint,int, uint8, bool, address, string memory) {\n        return (x, i ,j , isEthereumCool, owner, sMsg);\n    }\n\n}",
  "sourcePath": "/Users/jessehawke/Desktop/myProject-Eth/contracts/DataTypes.sol",
  "compiler": {
    "name": "solc",
    "version": "0.5.16+commit.9c3226ce.Emscripten.clang"
  },
  "schemaVersion": "3.4.8",
  "updatedAt": "2022-07-21T10:14:21.714Z",
  "networkType": "ethereum",
  "devdoc": {
    "methods": {}
  },
  "userdoc": {
    "methods": {}
  }
}